:100000000317831688018901031385018701FF30D7
:10001000860081138112811101158114011483124C
:100020003D308100850187010A3080000B110B19DA
:100030002120061C2F20861C36203C2081008708AA
:1000400017280B113D308100800B08000A3080001A
:10005000850A10300502031D080085010800061CF2
:100060002F28810A011A81033C200800861C3628AB
:100070008103810F8103080001080F3902077E34D4
:1000800030346D34793433345B345F3470347F34DE
:100090007B3477341F344E343D344F3447340800BA
:04400E00C430FF3F7C
:00000001FF
