:100000000317831688018901031385018701FF30D7
:10001000860081138112811101158114011483124C
:100020003D308100850187010A30A000FF30A40027
:10003000A3000B112408A30055200608A4000B19E7
:100040002820231C3620A31C3C20422087001A288D
:100050000B113D308100A00B08000A30A000850A7A
:1000600010300502031D080085010800241C08004B
:10007000A10A211AA1030800A41C0800A103A10FD2
:10008000A103080021080F3982073F3406345B348E
:100090004F3466346D347D3407347F346F347734B5
:1000A0007C3439345E3479347134A730A200A20B29
:0400B00057280800C5
:04400E00C430FF3F7C
:00000001FF
